:100000000C94D5020C94F2020C94F2020C94F202BD
:100010000C94F2020C94F2020C94F2020C94F20290
:100020000C94F2020C94F2020C94F2020C94DB1584
:100030000C94F2020C94100B0C94F2020C94670BCB
:100040000C94F2020C94F2020C94F2020C94F20260
:100050000C94F2024B4E41204275670054696D6565
:100060006F75740052756E6E696E672E2E2E007558
:10007000434F5369690022080A0E206004020506F6
:10008000070809020303050802040204070407071E
:100090000707070707070202070707080E090808EE
:1000A0000807070908020708070B080907090907D5
:1000B0000808090D070808040404060803070706D2
:1000C0000707050707020306020A070707070506D1
:1000D0000507070B060705050105070800000000D6
:1000E00000000000FEFE18181E1E001E1E0000006C
:1000F000000090F89E90F89E1C00001C0000183C28
:1001000026FF66CC88040C183C180C041C221CC06A
:10011000308E408000001804000C100C80CC7E72E1
:10012000F2DE0C80000C1C1010101C0C1C101E1E8B
:100130000000F0FC061C7CC006FCF0C07C1C141403
:100140000E14140000000000606060FCFC60606041
:100150000000000C0C00000000005838C0C0C0C0F7
:10016000000000000000181800C038061804000045
:10017000F8FC0E060EFCF8040C1C181C0C04180CE1
:10018000FEFE00001C1C181C86C6663E1C181C1CAB
:1001900018181818888C062626FEDC040C1C181863
:1001A0000C04C0E0B88CFEFE80040404041C1C0493
:1001B000707E3E3636F6C60C1C1818180C04F8FC77
:1001C0006E6666EECC040C1818181C0C060606E6C3
:1001D000761E0600001C1C0000009CFE666666FE83
:1001E0009C0C1C1818181C0C3C7E666666FCF80CEF
:1001F0001C18181C0C0418181818181858386060A7
:10020000F0F098980C0000000004040CD8D8D8D85E
:10021000D8D8D8000000000000000C9898F0F060DA
:10022000600C040400000000080C06C6E6763C18CA
:100230000000001818000000E03008C4F63A1A1A4E
:10024000F2FA7E0408F00C30604C9C98988C9C9CD0
:1002500090484C2000C0F8BE86BEF8C000181C04B0
:10026000040404041C18FEFE66666666FEDC1C1CA4
:10027000181818181C0CF8FC0E06060E9C08040C26
:100280001C18181C0C04FEFE0606060EFCF81C1CAE
:100290001818181C0C04FEFE66666666661C1C18A0
:1002A00018181818FEFE66666666061C1C0000001C
:1002B0000000F8FC0E0606C6CEDCC8040C1C18189C
:1002C00018180C04FEFE60606060FEFE1C1C00003E
:1002D00000001C1CFEFE1C1C8080000000FEFE0CAA
:1002E0001C1818181C0CFEFE603078EC86021C1CD2
:1002F000000000041C18FEFE00000000001C1C187A
:1003000018181818FEFE0E7CE000E07C0EFEFE1CA5
:100310001C00000C1C0C00001C1CFEFE1C78E08065
:10032000FEFE1C1C0000040C1C1CF8FC0E0606063D
:100330000EFCF8040C1C1818181C0C04FEFE666653
:10034000667E3C1C1C0000000000F8FC0E068606C1
:100350000EFCF8040C1C18181C0C1C24FEFE66660F
:10036000E6E6BE1C001C1C0000000C1C18103C7EA5
:10037000666666EECC0C1C1818181C0C060606FEE9
:10038000FE0606060000001C1C000000FEFE000029
:100390000000FEFE040C1C18181C0C04021EFCE0DD
:1003A00000E0FC1E020000001C1C1C00000006FEF9
:1003B000F800F0FE0EFEF000F8FE0600001C1C1C0B
:1003C0000000001C1C1C0000060EF8F0F80E0618B9
:1003D0001C0400041C18060E38F0F0380E0600004D
:1003E000001C1C000000060686E6761E0E06181C81
:1003F0001C1818181818FEFE0606FCFCC0C00638AB
:10040000C000000004180606FEFEC0C0FCFC203838
:100410000E0E382000000000000000000000000068
:1004200000008080808080808080020604000000C0
:100430001098D858F8F0000C1C18180C1C10FEFE70
:10044000301838F0E01C1C0C181C0C04E0F01818D4
:100450003830040C18181C0CE0F0381830FEFE047C
:100460000C1C180C1C1CE0F0D8D8D8F0E0040C18B8
:100470001818180818FCFE1A1A001C1C0000E0F0DE
:10048000381830F8F864ECDCD8CCFC7CFEFE301870
:1004900018F8F01C1C0000001C1CFAFA1C1C00FAC6
:1004A000FAC0FC7CFEFEE0F098081C1C00041C183E
:1004B000FEFE1C1CF8F81018F8F01818F8F01C1CB8
:1004C00000001C1C00001C1CF8F8301818F8F01C68
:1004D0001C0000001C1CE0F0381838F0E0040C1C74
:1004E000181C0C04F8F8301838F0E0FCFC0C181C50
:1004F0000C04E0F0381830F8F8040C1C180CFCFC64
:10050000F8F83018181C1C00000070F8D8D8D890E3
:10051000081818181C0C18FCFE1818000C1C1818C9
:10052000F8F8000000F8F80C1C18180C1C1C38F81F
:10053000C000C0F83800001C1C1C000018F8E000C7
:10054000F038F000E0F81800001C1C0C000C1C1C1B
:1005500000001838E0E03818181C04041C1818F8BB
:10056000E000E0F8180084FCF83C04001898D87803
:10057000381C1C18181880FC7E0606007CFCC0C0C5
:10058000FEFC06067EFC80C0C0FC7C006030307043
:1005900060603000000000000000FE020202020263
:1005A00002FE1C1010101010101C11241FBECFE5ED
:1005B000D8E0DEBFCDBF11E0A0E6B0E0E8E4FDE2A8
:1005C00002C005900D92AE36B107D9F716E0AEE63F
:1005D000B1E001C01D92AB31B107E1F70E94920377
:1005E0000C94A2160C940000FC0184910895909341
:1005F000A1028093A00270939F0260939E02409399
:100600009A0208950F931F93082F8091A002909152
:10061000A102E0919E02F0919F0204960995182F85
:100620008091A0029091A102E0919E02F0919F0220
:1006300005960995482F011748F0202F30E0812FAB
:1006400090E0840F911D2817390724F080E01F9156
:100650000F910895011B202F30E02A5F3F4F8091BA
:10066000A0029091A102E0919E02F0919F02820F60
:10067000931F09958F5F1F910F9108950F931F93FB
:10068000CF93DF93EC018881882381F000E010E0B4
:1006900021960E940203080F111D88818823C1F74B
:1006A000C801DF91CF911F910F91089500E010E0F4
:1006B000F7CF0F931F93CF93DF93EC019C01FC01C5
:1006C00084918823A1F000E010E02196F901849143
:1006D0000E940203080F111D9E01FE0184918823D0
:1006E000A1F7C801DF91CF911F910F91089500E00C
:1006F00010E0F7CFDF93CF930F92CDB7DEB7929A8A
:10070000000000000000929819828981883030F43E
:1007100089818F5F898389818830D0F30F90CF9151
:10072000DF9108950E946C140E94CB0A82EA96E041
:1007300060E070E041E253E020E00E9461120E941C
:10074000EC1380E090E00895DF93CF930F92CDB744
:10075000DEB7982F6623D9F06130E1F09498939832
:100760008FEF84BB95BB929A000000000000929826
:1007700019828981883030F489818F5F89838981EA
:100780008830D0F315BA0F90CF91DF9108959698E5
:10079000979AE4CF9798969AE1CF1F9387FD25C04B
:1007A0006034E0F060E090E080939B0260939C02F4
:1007B00090939D028034B8F0805461E080640E9480
:1007C000A40310919D02186B812F60E00E94A40386
:1007D000812F61E00E94A4031F910895962F9695A2
:1007E00096959695E1CF60E0E9CF80E0D9CF1F9351
:1007F000DF93CF930F92CDB7DEB715BA14BA9091AD
:100800009B02903438F59698979A903439F1949ADF
:10081000939A929A00000000000013B392981982F4
:100820008981883030F489818F5F8983898188301C
:10083000D0F38FEF84BB892F60919C020E94CD037F
:1008400080916E0181111095812F0F90CF91DF91D2
:100850001F9108959798969A9034C9F68823B9F213
:1008600080E461E00E94A40390919B02D0CF81E0DC
:100870000E94F70380E00E94F7030895DF92EF9251
:10088000FF920F931F93DF93CF930F92CDB7DEB7F5
:10089000082F80919B0287FD29C0803480F19798B2
:1008A000969A803481F1949A9398FF24FA94F4BA3A
:1008B00010919C02177059F580916E01811100957D
:1008C00005BB929A0000000000009298198289816D
:1008D000883030F489818F5F898389818830D0F3B3
:1008E00080919B028F5F80939B0215BA0F90CF91EE
:1008F000DF911F910F91FF90EF90DF9008959698F0
:10090000979A803481F661E00E94A403CCCFD2B2E2
:1009100081E00E94F70380E00E94F703D2BAF4BAA4
:10092000E02EFF24012F10E09701002E02C0220FBD
:10093000331F0A94E2F7982F922B80916E0188233F
:1009400009F04BC095BB929A0000000000009298FD
:1009500019828981883030F489818F5F8983898108
:100960008830D0F360919C02685F80919B020E9466
:10097000CD0381E00E94F70380E00E94F703D2BA22
:100980009FEF94BB28E030E0201B310B02C0F594B0
:10099000E7942A95E2F7282F2E2980916E0188236B
:1009A000D1F425BB929A00000000000092981982B1
:1009B0008981883030F489818F5F8983898188308B
:1009C000D0F380919B0260919C0268508F5F0E94DF
:1009D000CD0315BA8BCF2095E4CF9095B3CF2F924E
:1009E0003F924F925F926F927F928F929F92AF92BF
:1009F000BF92CF92DF92EF92FF920F931F93DF93FC
:100A0000CF9300D000D000D0CDB7DEB7082F8091B3
:100A1000A0029091A102E0919E02F0919F020396A4
:100A20000995F82E282F27702B838091A002909192
:100A3000A102E0919E02F0919F0204960995182F61
:100A40008091A0029091A102E0919E02F0919F02FC
:100A50000596099530919B023A8390919C02998367
:100A6000011708F496C0202F30E0C82EDD24C601FF
:100A7000810F911D281739070CF08BC08F2D90E046
:100A800007969595879595958795959587958C83E8
:100A9000F02EF11A09F4E6C000E010E096E0A92E6D
:100AA000B12C8091A0029091A102E0919E02F09160
:100AB0009F028A0D9B1D0995080F111D0894A11C0A
:100AC000B11C8A2D86508F1560F3EC818E2F90E03B
:100AD000089F9001099F300D189F300D112486E06A
:100AE000482E512C4C0C5D1C420E531E2F2D30E015
:100AF0002A5F3F4F8091A0029091A102E0919E0257
:100B0000F0919F02820F931F0995082FFC81FF230C
:100B100009F492C08F2E9924282E2194AA24BB2454
:100B20003324002309F469C06201C30CD11C3201D3
:100B3000620C711C1E821D8275010894E11CF11C5F
:100B40000DC0812F80950E943E042D813E812F5F34
:100B50003F4F3E832D83201708F053C02D813E81E7
:100B60002C0D3D1D8091A0029091A102E0919E026A
:100B7000F0919F02820F931F0995182F8E149F04E6
:100B800021F180919A028F3FE1F6812F0E943E046D
:100B9000DCCF21E030E0C90126960FB6F894DEBF25
:100BA0000FBECDBFCF91DF911F910F91FF90EF90BE
:100BB000DF90CF90BF90AF909F908F907F906F907D
:100BC0005F904F903F902F9008952D813E81260D8C
:100BD000371D8091A0029091A102E0919E02F091B8
:100BE0009F02820F931F099590E00B8002C095959C
:100BF00087950A94E2F7182BC4CF75010894E11C7D
:100C0000F11C80919A028F3F49F18FEF0E943E04C0
:100C100082E090E0A80EB91EA814B904BCF460915B
:100C20009C02685F8A810E94CD035701300E200E1E
:100C3000EC81EE1608F475CFFA81FF5F8F2F800FDD
:100C400069810E94CD0320E030E0A5CF60919C0235
:100C50009B81690F8A810E94CD03E7CF80E00E94CB
:100C60003E04D6CF20E030E03ACF0F931F93CF93CE
:100C7000DF93EC0100919B02FC018491882341F4F5
:100C800021C00E94EF042196FE0184918823D1F0B7
:100C9000FE0184918A30A9F710919C028091A002F4
:100CA0009091A102E0919E02F0919F020396099516
:100CB000180F802F612F0E94CD032196FE01849191
:100CC000882331F7DF91CF911F910F9108950F93F2
:100CD0001F93DF93CF930F92CDB7DEB780E690E0FE
:100CE00090939602809395028AE090E09093980208
:100CF0008093970281E0809399028E010F5F1F4FCE
:100D000085E992E061E0A8010E94DD0C89818823D9
:100D100029F488B391E0892788BBF2CF813049F06C
:100D200080E060E30E94CD0384E590E00E943506F8
:100D3000E7CF80E060E30E94CD038CE590E00E9465
:100D40003506DECFF89485E083BF81E089BF12BE0F
:100D5000789480E060E00E94CD038FE690E00E94EE
:100D6000350680E060E10E94CD0384E690E00E94B9
:100D7000350687E696E060E070E041EA53E023E064
:100D80000E94611281E391E00E946810FBCF0F93F3
:100D90001F93CF93DF93EC0100919B0288818823FE
:100DA00039F41DC00E94EF04219688818823B9F090
:100DB0008A30C1F710919C028091A0029091A1020B
:100DC000E0919E02F0919F0203960995180F802FE3
:100DD000612F0E94CD0321968881882349F7DF91F6
:100DE000CF911F910F9108950F931F93062F142FEA
:100DF000687F0E94CD0381E00E94F70380E00E949B
:100E0000F703282F1F3F79F0077081E090E002C0C0
:100E1000880F991F0A95E2F7809582230E943E046D
:100E20001F910F910895077081E090E002C0880F34
:100E3000991F0A95E2F7822B0E943E041F910F91A1
:100E40000895AF92BF92CF92DF92EF92FF920F93ED
:100E50001F93CF93DF93B82EC42EA22EA394462FB8
:100E60004770062F041BCA2DD0E0642F70E028E0E5
:100E700030E0C901861B970BC817D9070CF058C082
:100E80002C1B3D0B8FEF90E002C0959587952A951E
:100E9000E2F790E0FA2C02C0880F991F6A95E2F7FA
:100EA000D82E8B2D602F0E94CD03ED2CE09410E006
:100EB00081E00E94F70380E00E94F703982F8E2DB7
:100EC000892390959D21892B0E943E041F5FC116A6
:100ED00078F72F2D30E0C90107968C179D07DCF4B9
:100EE000085F8B2D602F0E94CD0310E081E00E94EF
:100EF000F70380E00E94F70380950E943E041F5F85
:100F0000C116A0F788E0F80E2F2D30E0C901079632
:100F10008C179D072CF3FA1488F0DF91CF911F9165
:100F20000F91FF90EF90DF90CF90BF90AF9008951A
:100F300038E0F32EF41A8FEF90E0ADCFC21BD30B45
:100F40008FEF90E002C0880F991FCA95E2F7F82E44
:100F5000F094085F8B2D602F0E94CD030F2D00951C
:100F600010E081E00E94F70380E00E94F703982FD1
:100F7000802F892390959F21892B0E943E041F5F1B
:100F8000C11678F7CACF1F93182F80916E01811771
:100F900041F080E060E04FE72FE30E9421071093CB
:100FA0006E011F9108959F92AF92BF92CF92DF92F0
:100FB000EF92FF920F931F93CF93DF93B82EC42E1F
:100FC000922ED02E9394462F4770062F041BC92DC6
:100FD000D0E0642F70E028E030E0C901861B970B59
:100FE000C817D9070CF058C02C1B3D0B8FEF90E0B1
:100FF00002C0959587952A95E2F790E0F92C02C0FA
:10100000880F991F6A95E2F7A82E8B2D602F0E94FA
:10101000CD0310E0EA2CE09406C08E210E943E042D
:101020001F5FC11678F081E00E94F70380E00E9404
:10103000F7039FEFD91689F78A290E943E041F5FA4
:10104000C11688F72F2D30E0C90107968C179D0730
:10105000ACF4085F8B2D602F0E94CD0310E08D2D26
:101060000E943E041F5FC116D0F788E0F80E2F2DB6
:1010700030E0C90107968C179D075CF3F91490F0D6
:10108000DF91CF911F910F91FF90EF90DF90CF9064
:10109000BF90AF909F90089558E0F52EF41A8FEF0F
:1010A00090E0ADCFC21BD30B8FEF90E002C0880F52
:1010B000991FCA95E2F7F82EF094085F8B2D602FE8
:1010C0000E94CD0310E00F2D009506C080230E94E2
:1010D0003E041F5FC116A0F281E00E94F70380E08A
:1010E0000E94F7039FEFD91689F78F29F0CF0F934E
:1010F00010929B0210929C0210929D0280936E01AE
:101100008FEF81BB959A8FE360E00E94A4038FE389
:1011100061E00E94A4038AEF90E00197F1F780EC70
:1011200060E00E94A40380EC61E00E94A40380E0E0
:1011300060E04FE72FE300E00E94D30780E060E02B
:101140000E94CD030F9108952F923F924F925F928C
:101150006F927F928F929F92AF92BF92CF92DF92C7
:10116000EF92FF920F931F93DF93CF93CDB7DEB72C
:101170002C970FB6F894DEBF0FBECDBF8F83688764
:1011800049872A87AE2C602E7724C301880F991FC8
:1011900022273327281B390B3E832D832D5F3F4F9A
:1011A0003C872B873F80300E262E200E342F8F81D8
:1011B000380F3C83301B3B839A85960F9983901B95
:1011C0009A8388249924442455241CC0EB85FC85EB
:1011D0003A96C40186199709880F991F880F991F9D
:1011E000E80FF91FFC87EB870894610871080894E1
:1011F000811C911C24E030E0420E531E68147904D7
:101200000CF444C0082DB32CB818162DE22CE618A7
:101210008B2D6E2D4A2D0E94F406C32CC618D22C9D
:10122000D8188C2D6D2D4A2D0E94F406FB80F80CE9
:101230008F2D6E2D4A2D0E94F406EB80E60C8E2D2C
:101240006D2D4A2D0E94F406FA811F0F8F2D612FFC
:101250004A2D0E94F4062A81020F8E2D602F4A2DFE
:101260000E94F4068B2D612F4A2D0E94F4068C2DCE
:10127000602F4A2D0E94F4068B859C8597FFA6CF90
:101280000696840D951D9C878B87B1CF1D81F984AF
:10129000F10E832D68854F2D20E00A2D0E94D30783
:1012A000832D69814F2D20E00E94D3073A85130FCB
:1012B0008F81622D40E0212F0E94D3078C81622D07
:1012C00040E0212F0E94D3072C960FB6F894DEBF82
:1012D0000FBECDBFCF91DF911F910F91FF90EF9087
:1012E000DF90CF90BF90AF909F908F907F906F9046
:1012F0005F904F903F902F900895CF92DF92EF92A2
:10130000FF920F931F93182FF62ED42EC22E20E09B
:101310000E94D3076C2D6F0D812F4D2D20E00E9470
:10132000D307812F6F2D40E02C2D0E94D3078D2DE8
:10133000810F6F2D40E02C2D0E94D3071F910F913C
:10134000FF90EF90DF90CF9008953F924F925F9281
:101350006F927F928F929F92AF92BF92CF92DF92C5
:10136000EF92FF920F931F93CF93DF93A82EE62E59
:10137000D42EB22E302E841709F4DAC0621709F485
:1013800069C0022F10E0262F30E04801821A930A2C
:10139000442E5524E82FF0E032016E1A7F0A86149D
:1013A00097040CF075C0C901801B910B8615970539
:1013B0000CF06EC0B61608F4E6C0C2012F01FC01A5
:1013C000CB2CCE18CC2DD0E088EC90E09C01629E16
:1013D000C001639E900D729E900D1124BE010E946B
:1013E00059164B014A2DFF244E1A5F0A15C01F5F84
:1013F0002F2D2E0D842F622F412F032D0E94A50922
:101400006C167D060CF4B5C0AD1408F0B2C0412FC7
:101410004F5FF394CF1450F18F2D90E0889D900191
:10142000899D300D989D300D1124C90168EC70E044
:101430000E945916162F1A0DC90168EC70E00E941F
:101440005916843691059CF65FEF8D39950784F621
:101450001150CECF481710F4DA2CA42EDA188A2DAA
:101460006E2D4D2D20E0032D0E94D307DF91CF91EB
:101470001F910F91FF90EF90DF90CF90BF90AF90B2
:101480009F908F907F906F905F904F903F900895C6
:10149000DA1408F45AC0C80189019C015D2C5A185D
:1014A000C52DD0E088EC90E0AC01849EC001859E03
:1014B000900D949E900D1124BE010E9459166B014F
:1014C000EE2DFF243801621A730A14C01F5F4F2DDE
:1014D0004A0D842F6E2F212F032D0E94A5098C16F3
:1014E0009D06ECF1EB14D8F5E12FEF5FF3945F1458
:1014F00008F4BCCF8F2D90E08C9D90018D9D300D18
:101500009C9D300D1124C90168EC70E00E945916B1
:10151000162F1E0DC90168EC70E00E945916843622
:101520009105A4F65FEF8D3995078CF61150CFCF5A
:10153000261710F4B62EE22EBE188A2D6E2D40E02E
:101540002B2D032D0E94D30791CF4901801A910AB8
:101550008D2DDA2CA82E8B2DBE2CE82E9FCF6C164D
:101560007D062CF0BE1418F4E12FE150BFCFE12F1F
:10157000BDCF4C165D062CF0DA1418F4412F415003
:1015800048CF412F46CF3F0164187508DA2CA42EAE
:10159000B62EE02E15CF8FEF87BB81E00E94770833
:1015A00086E790E064EF72E04FEF0E94F70287E673
:1015B00090E063E040E020E00E94EA0B0E94120C01
:1015C0000895FC010097B1F0F89481E080938001C8
:1015D00010927B01F0937901E093780160937A0196
:1015E00050937D0140937C0130937F0120937E01D5
:1015F0007894089580E00895F894109280011092F4
:101600007B0110927D0110927C0110927F0110925B
:101610007E011092790110927801789481E008950A
:101620001F920F920FB60F9211242F933F934F9357
:101630005F936F937F938F939F93AF93BF93EF933A
:10164000FF932CB180918001813089F0FF91EF915F
:10165000BF91AF919F918F917F916F915F914F91CA
:101660003F912F910F900FBE0F901F901895E09112
:101670007801F0917901309721F090917A019923C6
:10168000A9F4E0917C01F0917D013097F9F220916D
:101690007E0130917F0160917B0140E080917A0171
:1016A000882381F0C90170E00995D0CF80917B013A
:1016B000E80FF11D20838F5F80937B019150909301
:1016C0007A01DFCF41E0C90170E00995BFCF1F92D9
:1016D0000F920FB60F9211242F933F934F935F9366
:1016E0006F937F938F939F93AF93BF93EF93FF93EA
:1016F000E0917001F09171018081882311F5E091F2
:101700007201F0917301309729F0809174019091EA
:101710007501099580917601909177010E94B5122B
:10172000FF91EF91BF91AF919F918F917F916F91B9
:101730005F914F913F912F910F900FBE0F901F908F
:1017400018958CB93196F0937101E0937001E8CF50
:10175000CF92DF92EF92FF920F931F93DF93CF937D
:101760000F92CDB7DEB7D82EC92E8B017A0121306A
:1017700029F180917601909177010E944E0F892B7B
:10178000D9F01093730100937201F0927501E09209
:101790007401ED2DFC2D81918CB9F0937101E093D2
:1017A000700181E00F90CF91DF911F910F91FF9019
:1017B000EF90DF90CF90089580E0F4CF8091760194
:1017C0009091770160E070E0AE014F5F5F4F0E9443
:1017D000D412D7CFDF92EF92FF920F931F93D82EA0
:1017E000E92E162F042FF22E81E090E00E945E0F6A
:1017F000909377018093760110928001E0BCD9B874
:1018000088ED8AB9110F10680295007F012BFF0C3B
:10181000FF0CFF0CF02AF0BC1F910F91FF90EF908E
:10182000DF90089580E090E00E94180E909382026D
:101830008093810281E090E00E945E0F9093880285
:101840008093870280E090E00E945E0F9093840274
:101850008093830280E090E00E945E0F9093860266
:10186000809385028EE79CE060E070E040E052E00B
:1018700021E00E9461128EE49CE060E070E040E8AC
:1018800052E022E00E9461120895413031F08091CF
:101890008302909184020E94B5120895EF92FF9204
:1018A0000F931F93DF93CF9300D0CDB7DEB78E0198
:1018B0000F5F1F4F82E0E82EF12CEC0EFD1E809191
:1018C00085029091860260E070E0A8010E94D41227
:1018D000E0918902F0918A028481813081F71A8235
:1018E00080918702909188020E94B51280918102B6
:1018F00090918202B7010E941F13E1CFBF92CF9255
:10190000DF92EF92FF920F931F93DF93CF9300D05C
:10191000CDB7DEB78E010F5F1F4F22E0C22ED12C54
:10192000CC0EDD1E9DE3E92EF12CBB24B3948091F7
:1019300083029091840260E070E0A8010E94D412BA
:10194000E0918902F0918A02828193818E9DB0019B
:101950008F9D700D9E9D700D11248091830290913A
:101960008402A8010E94D41289818A30A9F0809152
:101970008302909184026EE170E0A8010E94D4126B
:1019800089818A30A1F70E94FC0A8091850290919A
:1019900086020E94B512CBCF0E94FC0ABA828091C7
:1019A0008702909188020E94B512809181029091E5
:1019B0008202B6010E941F13BACFCF92DF92EF923C
:1019C000FF920F931F93DF93CF930F92CDB7DEB7A4
:1019D0007C016A01613099F18091870290918802BF
:1019E0000E944E0F892B49F18E010F5F1F4FF0921D
:1019F0008A02E0928902F701808191816CE27DE0A8
:101A000040E050E021E00E94A80B8091810290917B
:101A1000820260E070E0A8010E943913FC0180811D
:101A2000F601808381E00F90CF91DF911F910F919C
:101A3000FF90EF90DF90CF90089580E0F4CF8091F9
:101A400087029091880260E070E08E010F5F1F4F67
:101A5000A8010E94D412CBCF8BE892E06AE045E463
:101A60005CE020E030E00E94E10A809183029091E6
:101A700084020E94B51208958091A303813009F079
:101A80000895809152048F3FD9F38F5F8093520461
:101A900008958091A303813009F00895F89480910E
:101AA000A2038F3F19F08F5F8093A203789408956B
:101AB0008CEF90E008950895FF920F931F93CF93BA
:101AC000DF93EC018B01F42E3981E32FF0E0E35931
:101AD000FF4F2081422F50E0FA01EB59FF4F7081F8
:101AE000DC01A40FB51F16969C911697E92FF0E024
:101AF000E359FF4F8081E82FF0E0EB59FF4F608101
:101B0000220F220F220F280F862F809589231696E9
:101B10008C93882321F4872F809538233983E22FF3
:101B2000F0E0EE0FFF1FE350FA4F0190F081E02D3F
:101B30001386128617821682118700878F2D809553
:101B4000948589238487882359F480914C04872BBA
:101B500080934C04FA01E35BFB4F8081682B608328
:101B6000822FDF91CF911F910F91FF900895CF9316
:101B7000DF93EC01A0915304B091540417969C9309
:101B80008E9316971F968C911F97482F50E0509672
:101B90003C915097FA01E35BFB4F832F8095908136
:101BA000892380838823A9F451962C91922F9095B4
:101BB00080914C04892380934C04FE01E40FF51FAF
:101BC0008681832B86838981822B8983DF91CF91C4
:101BD000089551962C91F1CFCF93DF93EC01A09112
:101BE0005304B09154041F968C911F97FE01E80F87
:101BF000F11D50968C91509780959681892386830C
:101C0000882339F451969C91519790958981892325
:101C100089831C961C921C9717961C921E921697ED
:101C2000DF91CF910895FC011182168217820895E9
:101C30009C01809152048823D9F4F894E0914F04D8
:101C4000F0915004309731F0848195819093500445
:101C500080934F047894309749F081E08083138219
:101C6000128235832483118216821782CF01089550
:101C7000E0E0F0E0CF0108952F923F924F925F9203
:101C80006F927F928F929F92AF92BF92CF92DF928C
:101C9000EF92FF920F931F93CF93DF934C015A0162
:101CA0006B01280139011701F89460914804709183
:101CB00049046115710549F0DB0112968D919C91E3
:101CC00013979093490480934804789461157105A3
:101CD00009F466C0E401A60195012150304040405E
:101CE000504079F172018401040D151DF80180E066
:101CF00090E0A0E0B0E0F983E883EF01EE0DFF1D76
:101D00000196A11DB11D82179307A407B50798F38B
:101D10008EEF9FEFAFEFBFEFA80EB91ECA1EDB1EFE
:101D2000EA9CE001EB9CD00DFA9CD00D112482E0DE
:101D300090E0A0E0B0E0A80EB91ECA1EDB1EC00FE6
:101D4000D11F19821882DB0111969C928E921396F4
:101D50009C928E921297FB01A486B586C686D78682
:101D60001896AD92BD92CD92DC921B97448255821B
:101D700066827782D1011C92CB01DF91CF911F91B6
:101D80000F91FF90EF90DF90CF90BF90AF909F901A
:101D90008F907F906F905F904F903F902F9008951D
:101DA0008EE6F1018083E8CFCF93DF93FC01EB0156
:101DB000F8942485358546855785211531054105DB
:101DC0005105A9F0A281B3818D919C9111979383C4
:101DD00082832150304040405040248735874687D9
:101DE000578778941882CD01DF91CF910895789428
:101DF00081E78883A0E0B0E0F6CFCF93DF93FC01CA
:101E0000EB01F89424853585468557858085918535
:101E1000A285B385281739074A075B0728F078940D
:101E200082E7DF91CF91089582819381998388839E
:101E3000738362832F5F3F4F4F4F5F4F24873587F8
:101E400046875787789480E0DF91CF9108958CEA98
:101E500093E090934904809348041092AF0310924A
:101E6000AE031092AD031092AC031092B80310921F
:101E7000B9031092BA031092BB031092B4031092EC
:101E8000B5031092B6031092B7031092B0031092EC
:101E9000B1031092B2031092B3030895FC01F894B9
:101EA000228133812115310531F0215030403383B7
:101EB00022832F5F3F4F7894C90108959C01809140
:101EC00052048823D9F4F894E0914F04F09150041F
:101ED000309731F0848195819093500480934F0422
:101EE0007894309749F083E080833383228315828E
:101EF0001482118216821782CF010895E0E0F0E08B
:101F0000CF0108958F3F89F0F894E82FF0E0EE0FAD
:101F1000FF1FE350FA4F0190F081E02D309769F0F8
:101F20008EE3828B80E078940895F894E0915304D6
:101F3000F09154048289789408958BE07894089500
:101F40001F93CF93DF93182FF894C0914404D0913E
:101F50004504209709F457C08A819B8190934504DA
:101F6000809344047894798368831D871C861B863C
:101F70001A861A8AE12FE695E695E695EF87F0E056
:101F8000EB59FF4F8081898BE12FE770EE87F0E0FE
:101F9000EB59FF4F8081888B1F821E82198618861D
:101FA000CE010E941415CE010E940C15F894E12F69
:101FB000F0E0EE0FFF1FE350FA4FD183C083E091B2
:101FC000AA03F091AB03FB83EA831D821C82309746
:101FD00011F0D583C483D093AB03C093AA0380913F
:101FE0004C049989892B80934C04EF85F0E0E35BE6
:101FF000FB4F80819889892B8083789480E0DF91E2
:10200000CF911F910895789486E4DF91CF911F912D
:102010000895F8948091A4039091A503A091A6033C
:10202000B091A7030196A11DB11D8093A4039093C5
:10203000A503A093A603B093A70378940E94131559
:10204000E8CFF89480915204882309F03FC0809132
:10205000A2038823D9F5E0914C04F0E0E359FF4F47
:102060008081E82FF0E0E35BFB4FE081F0E0E35993
:10207000FF4F982F990F990F990F8081980F909388
:10208000A8038091A903981709F1E92FF0E0EE0F5A
:10209000FF1FE350FA4F8081918190934B0480930E
:1020A0004A0480913C0490913D04A0913E04B0917B
:1020B0003F040196A11DB11D80933C0490933D0403
:1020C000A0933E04B0933F040E944715789408956E
:1020D0009C01009721F1F894A0915304B09154040D
:1020E0001F96EC911F97F0E0E35BFB4F50968C91AD
:1020F00050978095908189238083882349F4519655
:102100009C915197909580914C04892380934C0425
:102110001B963C932E931A9778940E942110089551
:102120008F929F92AF92BF92CF92DF92EF92FF92E7
:102130000F931F93CF93DF93882E162F942E88230F
:10214000C9F01C3300F58BE3891590F093E0283E2D
:102150003907D8F083E5DF91CF911F910F91FF9060
:10216000EF90DF90CF90BF90AF909F908F900895A9
:1021700082E5F1CF662329F7442329F7211531059C
:1021800029F784E5E8CF81E5E6CFB90180E090E06A
:102190002DE330E040E050E00E943A1668517E4F57
:1021A0008F4F9F4F28EE33E040E050E00E946C16C6
:1021B00059016A01612F70E080E090E02CE330E08B
:1021C00040E050E00E943A167B018C01E90CF11CC2
:1021D000011D111D682D70E080E090E020E13EE0DF
:1021E00040E050E00E943A16E60EF71E081F191F45
:1021F000C801B7012DE330E040E050E00E943A16FC
:10220000A60EB71EC81ED91E760100271127E701AA
:102210008FEF9FEFA0E0B0E0A822B922CA22DB2214
:10222000C5010E946810EF2851F080E090E80E94FC
:10223000681080E090E80E9468102197B1F780E074
:102240008ACFDF92EF92FF920F931F938091FC054C
:10225000882341F48AE790E00E9468108091FC0591
:102260008823C1F36091400470914104809142043D
:102270009091430424E630E040E050E00E946C1668
:10228000C901DA017C018D0154E6D52E10C0A801E8
:1022900097010E946C168D2D821B87FD44C0809390
:1022A00046040E940F158DE390E00E946810F89498
:1022B0008091A4039091A503A091A603B091A703D8
:1022C0008093170690931806A0931906B0931A06E8
:1022D0006091A4037091A5038091A6039091A70338
:1022E0001092A4031092A5031092A6031092A703C4
:1022F0007894E114F1040105110549F610924604A1
:102300006091400470914104809142049091430493
:1023100024E630E040E050E00E946C16C901DA018A
:102320007C018D01BECF10924604BBCF82E090E0CD
:102330000E946810F8941092A4031092A5031092C2
:10234000A6031092A70378948DE390E00E94681092
:10235000F8948091A4039091A503A091A603B09155
:10236000A7038093400490934104A0934204B09348
:10237000430481E08093FC05789408950F931F93A4
:10238000CF93DF93E82F80915204882309F068C02F
:10239000F894EF3F09F47FC00E2F10E0000F111FDB
:1023A000F801E350FA4FC081D181209709F479C038
:1023B0008F85482F50E028892095FA01E35BFB4F79
:1023C000808182238083882309F454C0AE81BF8139
:1023D000109749F0FD01E40FF51F86818223868363
:1023E000882309F44FC01B861A861C868091A2039D
:1023F0008F3F19F08F5F8093A2037894F89488231D
:10240000A9F5CE010E940D1580914704815080935B
:10241000470403501A4FF80111821082AC81BD812C
:10242000109709F445C08A819B8113969C938E93E3
:102430001297EA81FB81B583A48380914404909133
:1024400045049B838A83D0934504C09344047894C5
:102450000E94211080E0DF91CF911F910F9108958C
:102460008FE3DF91CF911F910F9108958150809359
:10247000A203C7CF9989909580914C0489238093BA
:102480004C04A4CF9989909511968C91119789232A
:1024900011968C93A8CFE0915304F0915404E585F4
:1024A0007BCF78948CE3DF91CF911F910F910895AA
:1024B000EA81FB8115821482F093AB03E093AA03B7
:1024C000BCCFAF92BF92CF92DF92EF92FF920F9369
:1024D0001F93CF93DF93FC01122FF894C22FD0E00B
:1024E000CC0FDD1FC350DA4F88819981892B71F0A1
:1024F000789418E2812FDF91CF911F910F91FF9077
:10250000EF90DF90CF90BF90AF90089581E090E082
:10251000998388837894CF0120E030E00E94E4140E
:10252000BC01812F40E050E020E030E0EE24FF24A9
:102530008701CC24DD24AA24BB240E94A00F182FDD
:10254000882371F4F894809147048F5F8093470447
:1025500078948091A303813069F60E942110CACF3C
:10256000F894198218827894C5CFFC01F89481817F
:10257000882379F4828193812FEF8F3F920731F086
:10258000019693838283789480E00895789482E31F
:102590000895CF0160E070E041E00E945C0D789406
:1025A0000E94211080E008950F931F93CF93DF9333
:1025B000EC018A0180915204882381F4F8948A8185
:1025C0009B81009799F001979B838A837894FA0105
:1025D0001082DF91CF911F910F91089582E0FA014F
:1025E0008083DF91CF911F910F910895E091530463
:1025F000F091540484858160848773876287CE015B
:102600000E94B70D78940E942110F894E091530431
:10261000F0915404848580FD0AC017821682789454
:10262000F8011082DF91CF911F910F910895CE0193
:102630000E94EC0D78948AE0F8018083CACFFC01F7
:10264000F8948181882339F484819581892B61F004
:10265000789484E10895CF0142E00E945C0D789463
:102660000E94211080E0089575836483789480E04F
:102670000895EF92FF920F931F93CF93DF938C01F6
:102680007A01809152048823A1F5F894F801C4815D
:10269000D581209769F0158214827894FA0110820E
:1026A000CE01DF91CF911F910F91FF90EF90089590
:1026B000E0915304F0915404848582608487738789
:1026C0006287C8010E94B70D78940E942110F89487
:1026D000E0915304F0915404C085D185209779F09E
:1026E000118610861486178216827894F70110825C
:1026F000D7CF82E0FA018083C0E0D0E0D1CFC8011B
:102700000E94EC0D78948AE0F7018083C9CF809114
:10271000A303813009F00895F8948091A2038823DF
:1027200059F081508093A203882321F480915204B0
:10273000882321F0789408957894089578940E94DD
:10274000211008950E9410158091A303813009F093
:102750000895A091AA03B091AB031D968C911D978B
:102760008C30B1F320914C0441E050E01AC05196F6
:102770008C915197282B1F96EC911F97F0E0E35B0B
:10278000FB4F808150969C915097892B80831296A5
:102790000D90BC91A02D78941D968C911D978C3036
:1027A000C1F0F8941A968D919C911B97009779F33C
:1027B00001971B969C938E931A97892B41F71C9631
:1027C0008C911C9783FFD3CF1B965C934E931A97E3
:1027D000DECF20934C0408958091A30381110895C6
:1027E000E0914C04F0E0E359FF4FA081EA2FF0E0C4
:1027F000E35BFB4FE081F0E0E359FF4FAA0FAA0F24
:10280000AA0F8081A80FA093A803A093A903B0E00A
:10281000AA0FBB1FA350BA4F8D919C9190934B046C
:1028200080934A0490935404809353040E94151596
:1028300008958091A303813009F00895F894809160
:102840005204882339F0815080935204882311F078
:10285000789408958091A2038823D1F7E0914C04E5
:10286000F0E0E359FF4F808180935104E82FF0E0BE
:10287000E35BFB4FE081F0E0E359FF4F982F990FA6
:10288000990F990F8081980F9093A8038091A903C5
:102890009817F1F2E92FF0E0EE0FFF1FE350FA4F27
:1028A0008081918190934B0480934A0480913C04F1
:1028B00090913D04A0913E04B0913F040196A11D6A
:1028C000B11D80933C0490933D04A0933E04B093CB
:1028D0003F040E94A615BCCF0E941115109252040D
:1028E0001092A203109247041092A30310923C048A
:1028F00010923D0410923E0410923F041092A403E3
:102900001092A5031092A6031092A70310924C04F4
:1029100010924D0410924E041092A9031092A80335
:1029200010924B0410924A041092540410925304D3
:102930001092AB031092AA03EDEFF5E01192119201
:1029400026E0E731F207D1F788E195E0FC017197C5
:1029500091838083439625E08C3F9207B9F71092CC
:10296000EC051092EB0585E095E09093450480938B
:10297000440425ED34E0F901CF01089610829583D7
:102980008483FC0184E0ED3FF807B1F710821582E3
:1029900014823093500420934F040E94270F89E043
:1029A00090E160E070E044ED54E02CE00E946112A0
:1029B00081E291E160E070E04BE354E02BE00E94A3
:1029C00061120E9412150895FA0180839293129267
:1029D00012921292129212921292129212921292D7
:1029E00012921292129212921292129212921292C7
:1029F0001292129212921292129212921292629366
:102A0000729312921292129212921292129280E881
:102A100082933197CF0108950895089508950895F8
:102A2000089508950895089508950E940E1500913F
:102A3000A30303950093A303E0914A04F0914B0490
:102A4000C191CDBFD191DEBF0F910FBFFF91EF912B
:102A5000DF91CF91BF91AF919F918F917F916F91B6
:102A60005F914F913F912F911F910F91FF90EF90A8
:102A7000DF90CF90BF90AF909F908F907F906F909E
:102A80005F904F903F902F901F900F9008950F925E
:102A90001F922F923F924F925F926F927F928F92EE
:102AA0009F92AF92BF92CF92DF92EF92FF920F93DD
:102AB0001F932F933F934F935F936F937F938F93C6
:102AC0009F93AF93BF93CF93DF93EF93FF930FB792
:102AD0000F93E0915304F0915404CDB7C193DEB746
:102AE000D1930E940E150091A8030093A903E091D1
:102AF0004A04F0914B04E0935304F0935404C191C1
:102B0000CDBFD191DEBF0F910FBFFF91EF91DF914C
:102B1000CF91BF91AF919F918F917F916F915F9175
:102B20004F913F912F911F910F91FF90EF90DF9068
:102B3000CF90BF90AF909F908F907F906F905F905D
:102B40004F903F902F901F900F9008950E940E1568
:102B50000091A8030093A903E0914A04F0914B046B
:102B6000E0935304F0935404C191CDBFD191DEBFE3
:102B70000F910FBFFF91EF91DF91CF91BF91AF9177
:102B80009F918F917F916F915F914F913F912F9185
:102B90001F910F91FF90EF90DF90CF90BF90AF907B
:102BA0009F908F907F906F905F904F903F902F906D
:102BB0001F900F9008950F921F922F923F924F9265
:102BC0005F926F927F928F929F92AF92BF92CF92BD
:102BD000DF92EF92FF920F931F932F933F934F93A8
:102BE0005F936F937F938F939F93AF93BF93CF9395
:102BF000DF93EF93FF930FB700680F930091520498
:102C0000039500935204013041F4CDB7DEB7E09153
:102C10005304F0915404C193D19300E002BFF0E05B
:102C20001F2E78940E94A21300000E9419140F9185
:102C30000FBFFF91EF91DF91CF91BF91AF919F9126
:102C40008F917F916F915F914F913F912F911F9144
:102C50000F91FF90EF90DF90CF90BF90AF909F903B
:102C60008F907F906F905F904F903F902F901F902C
:102C70000F900895629FD001739FF001829FE00D35
:102C8000F11D649FE00DF11D929FF00D839FF00DEB
:102C9000749FF00D659FF00D9927729FB00DE11D97
:102CA000F91F639FB00DE11DF91FBD01CF01112474
:102CB000089597FB092E07260AD077FD04D02ED061
:102CC00006D000201AF4709561957F4F0895F6F7AD
:102CD000909581959F4F0895A1E21A2EAA1BBB1BC8
:102CE000FD010DC0AA1FBB1FEE1FFF1FA217B307D8
:102CF000E407F50720F0A21BB30BE40BF50B661FEE
:102D0000771F881F991F1A9469F7609570958095B1
:102D100090959B01AC01BD01CF010895AA1BBB1B7F
:102D200051E107C0AA1FBB1FA617B70710F0A61BCB
:102D3000B70B881F991F5A95A9F780959095BC01EC
:082D4000CD010895F894FFCFC6
:102D480041540D0A000102040810204080000001CF
:102D5800000200010003000100020001000400015C
:102D6800000200010003000100020001000500014B
:102D7800000200010003000100020001000400013C
:102D8800000200010003000100020001000600012A
:102D9800000200010003000100020001000400011C
:102DA800000200010003000100020001000500010B
:102DB80000020001000300010002000100040001FC
:102DC80000020001000300010002000100070001E9
:102DD80000020001000300010002000100040001DC
:102DE80000020001000300010002000100050001CB
:102DF80000020001000300010002000100040001BC
:102E080000020001000300010002000100060001A9
:102E1800000200010003000100020001000400019B
:102E2800000200010003000100020001000500018A
:102E3800000200010003000100020001000400017B
:0E2E4800000200010003000100020001000072
:00000001FF
